:0400000035EF22F0C6
:104210006405A959081F00010001B55100D0120022
:0A42200045C0B5F049EC21F0120092
:10422B00055326070FAA13A9BD0132FFFF19070774
:10423B00D005EC27F00ED07AEC22F00BD00AD00090
:10424B00010001B551000AD8B4F3D7020AD8B4F370
:10425B00D700D01200596E000E456E595010EC214C
:10426B00F09DEC2DF082EC21F000D0A9EC21F0DDDB
:10427B00EC31F045EC30F0F0EC3BF008EC23F0F5D2
:10428B00D7F4D700EF00F0200E00010001B561015B
:10429B00D001D012D006D005D0D1EC21F00DD00C2E
:1042AB00D00BD000010001B551000AD8B4F5D707E7
:1042BB000AD8B402D001D000D01200000E496E0013
:1042CB000E486E00D044A001D001D005D046504816
:1042DB00264750492200D0D89046364736D89045CD
:1042EB0032443245504410D8A401D001D0EBD7480A
:1042FB00C044F049C045F01200000E896EBB6861E6
:10430B0068000EF16EC00ED56E3F0EBA6EF20ED374
:10431B006E9B8CC00ED56E020E9F6E9368000E9234
:10432B006E000E946E200E0F010F01396F340EC20A
:10433B006E080EC16E900E0F010F01426FC280C24C
:10434B0082000EF26E120081B801D001D01CD00099
:10435B000100017B51D8B401D001D002D01BD01A7F
:10436B00D00BEC21F0000100017D6F000100017DFD
:10437B0029456E10EC21F0466E010E000100017B09
:10438B006F465008D007D0466E000E000100017B2F
:10439B006F465000D012004B0E046E880E036E4C0D
:1043AB000E066E5E0E056E4A0E086EB20E076E4955
:1043BB000E0A6E060E096E490E0C6EDC0E0B6E4469
:1043CB006E000E406E44500DD04050080D000EF3A1
:1043DB0024D96E020EF420DA6E0001B4C0DFFF4068
:1043EB002A00D05A50405CD8A001D001D0EDD70D97
:1043FB00681200000E4A6E000E496E47504610D8E8
:10440B00B401D001D027D0486E010E4B6E48500539
:10441B00D0D890463647364B2A00D047AE01D00154
:10442B00D0F7D701D000D0D89049364A3646504401
:10443B005C47504558D8A001D001D006D046504417
:10444B005E4750455A498000D0D890473246324B90
:10445B002EEAD700D049C044F04AC045F012000202
:10446B00EE00F013EE70F0EE6AE550E150FCE1E285
:10447B0050FAE101EE00F011EE00F0EE6AE550E1CA
:10448B0050FCE1E250FAE100EE60F0460EEE6AE815
:10449B0006FDE100EE01F0430EEE6AE806FDE12BAE
:1044AB000EF66E420EF76E000EF86E00EEA6F010D2
:1044BB00EE0FF00900F5CFEEFFE550E150FAE110F9
:1044CB000EF66E420EF76E000EF86E00EE5AF010FE
:1044DB00EE06F00900F5CFEEFFE550E150FAE100F2
:1044EB000EF86E000130EF21F0446E000E176E4493
:1044FB00503AD01750080D070EF326000EF4220089
:10450B000EF324D96E020EF420DA6E010EDF6E1755
:10451B0050080D010EF326000EF422000EF324D9E1
:10452B006E020EF420DA6E800EDF6E1750080D024D
:10453B000EF326000EF422000EF324D96E020EF4B5
:10454B0020DA6E800EDF6E1750080D030EF3260077
:10455B000EF422000EF324D96E020EF420DA6E80D4
:10456B000EDF6E172A00D05A50175CD8A001D0016D
:10457B00D0C0D700D01200466E000E2E6E46503AB9
:10458B00D0B6EC23F0466ECF0E465CD8A001D0011E
:10459B00D02FD0B6EC23F0466E4628D8A401D0011C
:1045AB00D00FD02E50080D010EF326000EF4220072
:1045BB000EF324D96E020EF420DA6EFF0EDF6E00BE
:1045CB00D0B6EC23F0466E4628D8A401D001D0100B
:1045DB00D02E50080D030EF326000EF422000EF31E
:1045EB0024D96E020EF420DA6EFF0EDF6E01D000BE
:1045FB00D02E2A00D05A502E5CD8A001D001D0C0AA
:10460B00D700D0120029D04DD0FCEC2CF04AD0FCB6
:10461B00EC2CF047D0B3EC36F044D001EC31F04148
:10462B00D0BBEC33F03ED057EC3AF03BD00DEC392D
:10463B00F038D0EDEC2EF035D0EDEC2EF0C1EC22B5
:10464B00F030D0CBEC32F02DD0586E000E456E58BA
:10465B005010EC21F026D025D000010001B55100FF
:10466B000AD8B41FD0010AD8B4CFD7030AD8B4CF15
:10467B00D7010AD8B4CFD7070AD8B4CFD7010AD8F5
:10468B00B4CFD7030AD8B4CFD7010AD8B4CFD70F3A
:10469B000AD8B4CFD7010AD8B4CFD7030AD8B4D12C
:1046AB00D7D3D712004A6E000E4C6E4A5049AE015A
:1046BB00D001D009D0486C491ED8B0492A4A6E01A6
:1046CB000E4C6E4A5000D047AE01D001D007D046F9
:1046DB006C471ED8B0472A010E4C1A00D0000E4E64
:1046EB006E000E4D6E49504810D8B401D001D02841
:1046FB00D04A6E010E4B6E4A5005D0D890483649C1
:10470B00364B2A00D049AE01D001D0F7D701D000EB
:10471B00D0D8904D364E364850465C49504758D805
:10472B00A001D001D006D04850465E4950475A4DA3
:10473B008000D0D890493248324B2EEAD701D000B6
:10474B00D04C50D8B401D001D005D04D6C4E1ED8F2
:10475B00B04E2A00D04DC046F04EC047F000D012EC
:10476B0000392A3950010D0101000EF324D96EDAFC
:10477B006A0101010EDA22DF505F243A263950011B
:10478B000D0101000EF324D96EDA6A0101010EDA74
:10479B0022DF503B6E3A50010D0101000EF324D97C
:1047AB006EDA6A0101010EDA223950010D010100A6
:1047BB000EF324E16EE26A0101010EE222DFCFE784
:1047CB00FF3A50010D0101000EF324D96EDA6A0194
:1047DB0001010EDA223BC0DFFF3A50010D0101004F
:1047EB000EF324D96EDA6A0101010EDA22DF50448E
:1047FB006E3950010D0101000EF324D96EDA6A01F6
:10480B0001010EDA22DF504424456E0101000E45F2
:10481B0024D96EDA6A0101010EDA22DF503B6E3BBE
:10482B005000D01200446E000E406E44503AD040FF
:10483B0050080D050EF326000EF422000EF324D9BA
:10484B006E020EF420DA6EBF0EDF6E4050080D06BE
:10485B000EF326000EF422000EF324D96E020EF492
:10486B0020DA6E000EDF6E4050080D040EF32600AA
:10487B000EF422000EF324D96E020EF420DA6EFF32
:10488B000EDF6E4050080D070EF326000EF42200CB
:10489B000EF324D96E020EF420DA6E010EDF6E4099
:1048AB002A00D05A50405CD8A001D001D0C0D7000C
:1048BB00D0480E026E300E016E690E046E5E0E0352
:1048CB006E6B0E066E520E056E4B0E086E880E0743
:1048DB006E570E0A6E800E096E446E960E0D6E4468
:1048EB0050446E5F0E0E6E4450446E780E0F6E4445
:1048FB0050446E780E106E44501200446E000E4001
:10490B006E44503AD04050080D050EF326000EF4BD
:10491B0022000EF324D96E020EF420DA6E000EDFA5
:10492B006E4050080D060EF326000EF422000EF317
:10493B0024D96E020EF420DA6EFF0EDF6E405008A3
:10494B000D040EF326000EF422000EF324D96E0292
:10495B000EF420DA6E000EDF6E4050080D070EF3DA
:10496B0026000EF422000EF324D96E020EF420DA88
:10497B006E010EDF6E402A00D05A50405CD8A00169
:10498B00D001D0C0D700D0490E026E060E016E4B7F
:10499B000E046E880E036E4D0E066E340E056E6F92
:1049AB000E086EA80E076E570E0A6E800E096E4427
:1049BB006EB40E0D6E4450446E5F0E0E6E4450443A
:1049CB006E780E0F6E4450446E640E106E4450128F
:1049DB0000446E000E406E44503AD04050080D0714
:1049EB000EF326000EF422000EF324D96E020EF401
:1049FB0020DA6E010EDF6E4050080D050EF3260017
:104A0B000EF422000EF324D96E020EF420DA6EFFA0
:104A1B000EDF6E4050080D060EF326000EF422003A
:104A2B000EF324D96E020EF420DA6E7F0EDF6E4089
:104A3B0050080D040EF326000EF422000EF324D9B9
:104A4B006E020EF420DA6E000EDF6E402A00D05A92
:104A5B0050405CD8A001D001D0C0D700D0490E0285
:104A6B006EDC0E016E4D0E046E340E036E4E0E0692
:104A7B006EF00E056E4D0E086E340E076E560E0A56
:104A8B006E440E096E446E8C0E0D6E4450446E32A5
:104A9B000E0E6E4450446E320E0F6E4450446E46F2
:104AAB000E106E44501200446E000E406E44503A8D
:104ABB00D04050080D070EF326000EF422000EF323
:104ACB0024D96E020EF420DA6E010EDF6E40500810
:104ADB000D050EF326000EF422000EF324D96E0200
:104AEB000EF420DA6EFF0EDF6E4050080D060EF34B
:104AFB0026000EF422000EF324D96E020EF420DAF7
:104B0B006EFF0EDF6E4050080D040EF326000EF400
:104B1B0022000EF324D96E020EF420DA6EFF0EDFA4
:104B2B006E402A00D05A50405CD8A001D001D0C0B2
:104B3B00D700D04A0E026EB20E016E4B0E046E8879
:104B4B000E036E500E066EC00E056E6F0E086EA82D
:104B5B000E076E690E0A6E5E0E096E446E780E0DB0
:104B6B006E4450446E5F0E0E6E4450446E810E0FB9
:104B7B006E4450446E460E106E44501200446E004C
:104B8B000E406E44503AD04050080D050EF32600EF
:104B9B000EF422000EF324D96E020EF420DA6E000E
:104BAB000EDF6E4050080D060EF326000EF42200A9
:104BBB000EF324D96E020EF420DA6E000EDF6E4077
:104BCB0050080D040EF326000EF422000EF324D928
:104BDB006E020EF420DA6EFF0EDF6E4050080D07EA
:104BEB000EF326000EF422000EF324D96E020EF4FF
:104BFB0020DA6E010EDF6E402A00D05A50405CD88E
:104C0B00A001D001D0C0D700D04B0E026E880E0190
:104C1B006E480E046E300E036E690E066E5E0E0548
:104C2B006E4C0E086E5E0E076E550E0A6E0E0E095A
:104C3B006E446EBE0E0D6E4450446E5F0E0E6E448F
:104C4B0050446E320E0F6E4450446EC70E106E44BD
:104C5B00501200446E000E406E44503AD040500843
:104C6B000D070EF326000EF422000EF324D96E026C
:104C7B000EF420DA6E010EDF6E4050080D050EF3B8
:104C8B0026000EF422000EF324D96E020EF420DA65
:104C9B006EFF0EDF6E4050080D060EF326000EF46D
:104CAB0022000EF324D96E020EF420DA6EFF0EDF13
:104CBB006E4050080D040EF326000EF422000EF386
:104CCB0024D96E020EF420DA6EFF0EDF6E402A003E
:104CDB00D05A50405CD8A001D001D0C0D700D04CE6
:104CEB000E026E5E0E016E490E046EDC0E036E4DEF
:104CFB000E066E340E056E4F0E086ED80E076E56EE
:104D0B000E0A6E440E096E446EBE0E0D6E44504478
:104D1B006E640E0E6E4450446E320E0F6E44504451
:104D2B006E460E106E44501200446E000E406E44E0
:104D3B00503AD04050080D070EF326000EF4220017
:104D4B000EF324D96E020EF420DA6E010EDF6E40E4
:104D5B0050080D050EF326000EF422000EF324D995
:104D6B006E020EF420DA6EFF0EDF6E4050080D0659
:104D7B000EF326000EF422000EF324D96E020EF46D
:104D8B0020DA6EFF0EDF6E4050080D040EF3260086
:104D9B000EF422000EF324D96E020EF420DA6E000C
:104DAB000EDF6E402A00D05A50405CD8A001D001D3
:104DBB00D0C0D700D04D0E026E340E016E490E04DA
:104DCB006E060E036E6F0E066EA80E056E4B0E086A
:104DDB006E880E076E690E0A6E5E0E096E446EBE0D
:104DEB000E0D6E4450446E320E0E6E4450446E32B5
:104DFB000E0F6E4450446E460E106E44501200520D
:104E0B006E000E406E5250C70E406401D001D002AE
:104E1B00D066D065D0B6EC23F0526E40C053F00391
:104E2B000E53160D0E5324D96EDA6A000EDA22DFFA
:104E3B0050525CD8B001D001D04AD040C052F003E0
:104E4B000E52160D0E5224D96EDA6A000EDA22DFDC
:104E5B0050D8B401D001D03BD0526E000E416E52EF
:104E6B0050040E416401D001D002D013D012D041B6
:104E7B0050010D0D0EF324D96EDA6A000EDA220002
:104E8B000EDF6E4128416E040E416401D001D0EF5C
:104E9B00D700D04050030B020D030EF324D96EDA6A
:104EAB006A000EDA22DECF01F0DDCF02F001D80A64
:104EBB00D00500FA6E0150FD6E0250FE6EF850FFE9
:104ECB006EFA501200526ED00E406E525000D0400F
:104EDB0028406EC70E406401D001D09CD700D04053
:104EEB0004406E1200466E000E406E465067D04076
:104EFB0050080D070EF326000EF422000EF324D9F2
:104F0B006E020EF420DA6E010EDF6EB6EC23F04665
:104F1B006E4050080D050EF326000EF422000EF322
:104F2B0024D96E020EF420DA6E46C0DFFFB6EC23F6
:104F3B00F0466E4050080D060EF326000EF42200CC
:104F4B000EF324D96E020EF420DA6E46C0DFFFB6E4
:104F5B00EC23F0466E4050080D040EF326000EF4C1
:104F6B0022000EF324D96E020EF420DA6E46C0DF57
:104F7B00FF500E026EC00E016E4E0E046EF00E034D
:104F8B006E5C0E066E840E056E570E086E800E0755
:104F9B006E530E0A6EE20E096E466EAA0E0D6E462B
:104FAB0050466E610E0E6E4650466E460E0F6E46A6
:104FBB0050466E460E106E4650402A00D05A504056
:104FCB005CD8A001D001D093D700D01200B6EC234F
:104FDB00F02A6E466E000E406E465040D040500890
:104FEB000D070EF326000EF422000EF324D96E02E9
:104FFB000EF420DA6E010EDF6E4050080D050EF335
:10500B0026000EF422000EF324D96E020EF420DAE1
:10501B006E2A50030DF3CFDFFF4050080D060EF341
:10502B0026000EF422000EF324D96E020EF420DAC1
:10503B006E2A50050DF3CFDFFF4050080D040EF321
:10504B0026000EF422000EF324D96E020EF420DAA1
:10505B006E2A50070DF3CFDFFF402A00D05A504085
:10506B005CD8A001D001D0BAD700D0690E026E5E19
:10507B000E016E4F0E046ED80E036E5C0E066E8420
:10508B000E056E580E086EBC0E076E560E0A6E4459
:10509B000E096E466EAA0E0D6E4650466EAA0E0E89
:1050AB006E4650466E640E0F6E4650466E780E106E
:1050BB006E46501200466E000E406E465067D04052
:1050CB0050080D070EF326000EF422000EF324D920
:1050DB006E020EF420DA6E010EDF6EB6EC23F04694
:1050EB006E4050080D050EF326000EF422000EF351
:1050FB0024D96E020EF420DA6E46C0DFFFB6EC2325
:10510B00F0466E4050080D060EF326000EF42200FA
:10511B000EF324D96E020EF420DA6E46C0DFFFB612
:10512B00EC23F0466E4050080D040EF326000EF4EF
:10513B0022000EF324D96E020EF420DA6E46C0DF85
:10514B00FF500E026EC00E016E500E046EC00E03A9
:10515B006E4E0E066EF00E056E6F0E086EA80E07E5
:10516B006E530E0A6EE20E096E466EAA0E0D6E4659
:10517B0050466E5F0E0E6E4650466E460E0F6E46D6
:10518B0050466E460E106E4650402A00D05A504084
:10519B005CD8A001D001D093D700D01200446E0090
:1051AB000E406E445056D04050080D010EF32600B1
:1051BB000EF422000EF324D96E020EF420DA6EFFE9
:1051CB000EDF6E4050080D020EF326000EF4220087
:1051DB000EF324D96E020EF420DA6E7F0EDF6E40D2
:1051EB0050080D030EF326000EF422000EF324D903
:1051FB006E020EF420DA6E000EDF6E4050080D05C5
:10520B000EF326000EF422000EF324D96E020EF4D8
:10521B0020DA6EFF0EDF6E4050080D060EF32600EF
:10522B000EF422000EF324D96E020EF420DA6E7FF8
:10523B000EDF6E4050080D040EF326000EF4220014
:10524B000EF324D96E020EF420DA6E000EDF6E40E0
:10525B002A00D05A50405CD8A001D001D0A4D7006E
:10526B00D0510E026EA80E016E4D0E046E340E035D
:10527B006E550E066E0E0E056E5F0E086E320E0725
:10528B006E446E780E0D6E4450446E460E0E6E4498
:10529B0050446E460E0F6E44501268446E000E144E
:1052AB006E4450446E7F0E136E44501200446E00D9
:1052BB000E406E445064D04050080D010EF3260092
:1052CB000EF422000EF324D96E020EF420DA6EFFD8
:1052DB000EDF6E4050080D020EF326000EF4220076
:1052EB000EF324D96E020EF420DA6EFF0EDF6E4041
:1052FB0050080D030EF326000EF422000EF324D9F2
:10530B006E020EF420DA6EFF0EDF6E4050080D07B2
:10531B000EF326000EF422000EF324D96E020EF4C7
:10532B0020DA6E010EDF6E4050080D050EF32600DD
:10533B000EF422000EF324D96E020EF420DA6EFF67
:10534B000EDF6E4050080D060EF326000EF4220001
:10535B000EF324D96E020EF420DA6EFF0EDF6E40D0
:10536B0050080D040EF326000EF422000EF324D980
:10537B006E020EF420DA6EFF0EDF6E402A00D05A5A
:10538B0050405CD8A001D001D096D700D0520E026D
:10539B006EB80E016E690E046E5E0E036E6F0E0616
:1053AB006EA80E056E5C0E086E840E076E490E0A13
:1053BB006E060E096E446E640E0D6E4450446E5FA5
:1053CB000E0E6E4450446E320E0F6E4450446E46B9
:1053DB000E106E44501200446E000E406E4450642A
:1053EB00D04050080D010EF326000EF422000EF3F0
:1053FB0024D96E020EF420DA6E000EDF6E405008D8
:10540B000D020EF326000EF422000EF324D96E02C9
:10541B000EF420DA6EFF0EDF6E4050080D030EF314
:10542B0026000EF422000EF324D96E020EF420DABD
:10543B006E000EDF6E4050080D070EF326000EF4C3
:10544B0022000EF324D96E020EF420DA6E010EDF69
:10545B006E4050080D050EF326000EF422000EF3DD
:10546B0024D96E020EF420DA6E000EDF6E40500867
:10547B000D060EF326000EF422000EF324D96E0255
:10548B000EF420DA6EFF0EDF6E4050080D040EF3A3
:10549B0026000EF422000EF324D96E020EF420DA4D
:1054AB006E000EDF6E402A00D05A50405CD8A0012F
:1054BB00D001D096D700D0446E000E126E445044EB
:1054CB006E000E146E44501368530E026EE20E0102
:1054DB006E560E046E440E036E690E066E5E0E055E
:1054EB006E4D0E086E340E076E446E640E0D6E44D8
:1054FB0050446E460E0E6E4450446E640E0F6E4456
:10550B00501200446E000E406E445064D040500860
:10551B000D010EF326000EF422000EF324D96E02B9
:10552B000EF420DA6EFF0EDF6E4050080D020EF304
:10553B0026000EF422000EF324D96E020EF420DAAC
:10554B006EFF0EDF6E4050080D030EF326000EF4B7
:10555B0022000EF324D96E020EF420DA6E000EDF59
:10556B006E4050080D070EF326000EF422000EF3CA
:10557B0024D96E020EF420DA6E010EDF6E40500855
:10558B000D050EF326000EF422000EF324D96E0245
:10559B000EF420DA6EFF0EDF6E4050080D060EF390
:1055AB0026000EF422000EF324D96E020EF420DA3C
:1055BB006EFF0EDF6E4050080D040EF326000EF446
:1055CB0022000EF324D96E020EF420DA6E000EDFE9
:1055DB006E402A00D05A50405CD8A001D001D09622
:1055EB00D700D0550E026E0E0E016E530E046EE2F6
:1055FB000E036E510E066EA80E056E490E086E0652
:10560B000E076E6F0E086EA80E076E446E6E0E0DB3
:10561B006E4450446E500E0E6E4450446E640E0F2A
:10562B006E4450446E640E0F6E44501268446E000C
:10563B000E146E445013681200446E000E406E44FC
:10564B005064D04050080D010EF326000EF42200DA
:10565B000EF324D96E020EF420DA6E000EDF6E40CC
:10566B0050080D020EF326000EF422000EF324D97F
:10567B006E020EF420DA6E000EDF6E4050080D0342
:10568B000EF326000EF422000EF324D96E020EF454
:10569B0020DA6EFF0EDF6E4050080D070EF326006A
:1056AB000EF422000EF324D96E020EF420DA6E01F2
:1056BB000EDF6E4050080D050EF326000EF422008F
:1056CB000EF324D96E020EF420DA6E000EDF6E405C
:1056DB0050080D060EF326000EF422000EF324D90B
:1056EB006E020EF420DA6E000EDF6E4050080D04D1
:1056FB000EF326000EF422000EF324D96E020EF4E4
:10570B0020DA6EFF0EDF6E402A00D05A50405CD874
:10571B00A001D001D096D700D0560E026E440E01D8
:10572B006E580E046EBC0E036E4D0E066E340E05D7
:10573B006E490E086E060E076E6F0E0A6EA80E09E6
:10574B006E446E000E126E44501468446E000E13BD
:10575B006E4450446E640E0D6E4450446E460E0EF5
:10576B006E4450446E460E0F6E4450446E640E10E1
:10577B006E44501200446E000E406E445064D04094
:10578B0050080D010EF326000EF422000EF324D95F
:10579B006E020EF420DA6EFF0EDF6E4050080D0223
:1057AB000EF326000EF422000EF324D96E020EF433
:1057BB0020DA6E000EDF6E4050080D030EF326004C
:1057CB000EF422000EF324D96E020EF420DA6E00D2
:1057DB000EDF6E4050080D070EF326000EF422006C
:1057EB000EF324D96E020EF420DA6E010EDF6E403A
:1057FB0050080D050EF326000EF422000EF324D9EB
:10580B006E020EF420DA6EFF0EDF6E4050080D06AE
:10581B000EF326000EF422000EF324D96E020EF4C2
:10582B0020DA6E000EDF6E4050080D040EF32600DA
:10583B000EF422000EF324D96E020EF420DA6E0061
:10584B000EDF6E402A00D05A50405CD8A001D00128
:10585B00D096D700D0570E026E800E016E510E04FB
:10586B006EA80E036E690E066E5E0E056E490E086F
:10587B006E060E076E6B0E0A6E520E096E446E6448
:10588B000E0D6E4450446E5F0E0E6E4450446E32DD
:10589B000E0F6E4450446E640E106E4450126844EA
:1058AB006E000E146E4450446E000E136E44501274
:1058BB0000446E000E406E445064D04050080D0101
:1058CB000EF326000EF422000EF324D96E020EF412
:1058DB0020DA6EC00EDF6E4050080D020EF326006C
:1058EB000EF422000EF324D96E020EF420DA6E00B1
:1058FB000EDF6E4050080D030EF326000EF422004F
:10590B000EF324D96E020EF420DA6EFF0EDF6E401A
:10591B0050080D070EF326000EF422000EF324D9C7
:10592B006E020EF420DA6E010EDF6E4050080D058C
:10593B000EF326000EF422000EF324D96E020EF4A1
:10594B0020DA6EBF0EDF6E4050080D060EF32600F8
:10595B000EF422000EF324D96E020EF420DA6E0040
:10596B000EDF6E4050080D040EF326000EF42200DD
:10597B000EF324D96E020EF420DA6EFF0EDF6E40AA
:10598B002A00D05A50405CD8A001D001D096D70045
:10599B00D0580E026EBC0E016E570E046E800E03B5
:1059AB006E5C0E066E840E056E4A0E086EB20E0706
:1059BB006E690E0A6E5E0E096E446E3C0E0D6E44E1
:1059CB0050446E640E0E6E4450446E640E0F6E4463
:1059DB0050446E640E106E4450446E9D0E126E4415
:1059EB00501468446E000E136E4450120027500181
:1059FB000DF60EF324F66EF76A7F0EF7220800F50C
:105A0B00CF18F038501818D8B401D001D00AD038BC
:105A1B0050186001D001D002D0380646D0382A4445
:105A2B00D043D02750010DE60EF324F66EF76A7FB4
:105A3B000EF7220800F5CF18F026501818D8B4012D
:105A4B00D001D00AD02650186001D001D002D02648
:105A5B00062BD0262A29D028D02750010DEE0EF385
:105A6B0024F66EF76A7F0EF7220800F5CF18F02B9D
:105A7B00501818D8B401D001D00AD02B501860019F
:105A8B00D001D002D02B0610D02B2A0ED00DD02750
:105A9B002A050E276401D001D007D0446E000E27D3
:105AAB006E445002D001D000D0446E000E176E44ED
:105ABB005036D01750080D050EF326000EF42200B9
:105ACB000EF324D96E020EF420DA6E38C0DFFF1706
:105ADB0050080D060EF326000EF422000EF324D907
:105AEB006E020EF420DA6E2BC0DFFF1750080D0488
:105AFB000EF326000EF422000EF324D96E020EF4E0
:105B0B0020DA6E26C0DFFF1750080D000EF324D9E4
:105B1B006E020EF420DA6E1C0EDF6E172A00D05ABE
:105B2B0050175CD8A001D001D0C4D700D0120044CC
:105B3B006E000E396E44503928D8A401D001D00222
:105B4B00D016D015D03950010D0101000EF324D918
:105B5B006EDA6A0101010EDA2239505D0FDF6E3900
:105B6B0028396E3928D8A401D001D0ECD700D04405
:105B7B006E5C0E01010101FF6F4450446E000E3943
:105B8B006E44503928D8A401D001D002D074D07300
:105B9B00D039C044F0070E4416DE0E4424F66EF7DF
:105BAB006A7F0EF7220800F5CF45F03950010D0141
:105BBB0001000EF324D96EDA6A0101010EDA22DF3D
:105BCB005045243A263950010D0101000EF324D91A
:105BDB006EDA6A0101010EDA22DF503B6E3A500198
:105BEB000D0101000EF324D96EDA6A0101010EDA00
:105BFB00223950010D0101000EF324E16EE26A011E
:105C0B0001010EE222DFCFE7FF3A50010D01010047
:105C1B000EF324D96EDA6A0101010EDA223BC0DFE2
:105C2B00FF3A50010D0101000EF324D96EDA6A011F
:105C3B0001010EDA22DF50446E3950010D010100D3
:105C4B000EF324D96EDA6A0101010EDA22DF504419
:105C5B0024456E0101000E4524D96EDA6A0101015B
:105C6B000EDA22DF503B6E3928396E3928D8A40161
:105C7B00D001D08ED700D01200B6EC23F0466E6563
:105C8B000E465CD8A001D001D02ED0B6EC23F00785
:105C9B000B2A6E2A50030DC60EF324F66EF76A7F9D
:105CAB000EF7220800F5CF12F02A50030DF3CF4662
:105CBB00F0010E4626C60E4624F66EF76A7F0EF7E7
:105CCB00220800F5CF14F02A50030DF3CF46F00253
:105CDB000E4626C60E4624F66EF76A7F0EF722088E
:105CEB0000F5CF13F000D0466E000E406E46503AD2
:105CFB00D04050080D010EF326000EF422000EF3D7
:105D0B0024D96E020EF420DA6E12C0DFFF40500869
:105D1B000D020EF326000EF422000EF324D96E02B0
:105D2B000EF420DA6E13C0DFFF4050080D030EF3A4
:105D3B0026000EF422000EF324D96E020EF420DAA4
:105D4B006E14C0DFFF4050080D070EF326000EF453
:105D5B0022000EF324D96E020EF420DA6E010EDF50
:105D6B006E402A00D05A50405CD8A001D001D0C060
:105D7B00D700D0466E000E126E4650466E000E14C3
:105D8B006E465013685C0E026E840E016E5C0E0440
:105D9B006E840E036E6F0E066EA80E056E550E0802
:105DAB006E0E0E076E4B0E0A6E880E096E466EAAAD
:105DBB000E0D6E4650466E640E0E6E4650466E507D
:105DCB000E0F6E4650466E960E106E46501200B673
:105DDB00EC23F0466ED890463200010001D8907E3D
:105DEB00314624000100017E6F31C030F033C032E8
:105DFB00F035C034F037C036F0466E000E2E6E46CE
:105E0B00507ED02E50080D060EF326000EF4220005
:105E1B000EF324D96E020EF420DA6E3450010DC647
:105E2B000EF324F66EF76A7E0EF7220800F5CF46C6
:105E3B00F0D8904632D8904632D890463236500140
:105E4B000DC60EF324F66EF76A7E0EF7220800F5E8
:105E5B00CF47F0D8904732D8904732D8904732325C
:105E6B0050010DC60EF324F66EF76A7E0EF722086C
:105E7B0000F5CF48F0D8904832D8904832D89048A7
:105E8B00323050010DC60EF324F66EF76A7E0EF714
:105E9B00220800F5CF49F0D8904932D8904932D832
:105EAB00904930482447244624DF6E2E50080D05B8
:105EBB000EF326000EF422000EF324D96E020EF41C
:105ECB0020DA6E000EDF6E2E50080D040EF3260046
:105EDB000EF422000EF324D96E020EF420DA6E00BB
:105EEB000EDF6E3050070F306E32500F0F326E34A4
:105EFB00501A0F346E36501F0F366E2E2A00D05AA2
:105F0B00502E5CD8A001D001D07CD700D0315007E7
:105F1B000F316E33500F0F336E3550150F356E3703
:105F2B00501F0F376E1200B6EC23F0466E650E460F
:105F3B005CD8A001D001D02ED0B6EC23F0070B2AF1
:105F4B006E2A50030DC60EF324F66EF76A7F0EF71A
:105F5B00220800F5CF12F02A50030DF3CF46F001C3
:105F6B000E4626C60E4624F66EF76A7F0EF72208FB
:105F7B0000F5CF14F02A50030DF3CF46F0020E4676
:105F8B0026C60E4624F66EF76A7F0EF7220800F53A
:105F9B00CF13F000D0466E000E406E465044D0B684
:105FAB00EC23F0466E800E465CD8A001D001D039B0
:105FBB00D04050080D050EF326000EF422000EF310
:105FCB0024D96E020EF420DA6E12C0DFFF405008A7
:105FDB000D060EF326000EF422000EF324D96E02EA
:105FEB000EF420DA6E13C0DFFF4050080D040EF3E1
:105FFB0026000EF422000EF324D96E020EF420DAE2
:10600B006E14C0DFFF4050080D070EF326000EF490
:10601B0022000EF324D96E020EF420DA6E010EDF8D
:10602B006E00D0402A00D05A50405CD8A001D0015D
:10603B00D0B6D700D0690E026E5E0E016E5F0E04F5
:10604B006E320E036E4B0E066E880E056E5C0E08DE
:10605B006E840E076E4F0E0A6ED80E096E466EC812
:10606B000E0D6E4650466E780E0E6E4650466EAA5C
:10607B000E0F6E4650466E460E106E465012005F67
:10608B0050C4245F6E446E000E2C6E4450ACD0C4D2
:10609B00CF25F0C2822550246001D001D003D0253A
:1060AB00C024F000D0446E800E2D6E44502D66013E
:1060BB00D001D002D024D023D0899000F02C5008EE
:1060CB000D010EF326000EF422000EF324D96E02FE
:1060DB000EF420DA6EDF502D140009D8B401D00174
:1060EB00D002D0898202D0899200D000F089800042
:1060FB00F0D8902D302D6E2D6601D001D0DDD7C498
:10610B00CF25F0C2822550246001D001D003D025C9
:10611B00C024F000D0446E800E2D6E44502D6601CD
:10612B00D001D002D024D023D0899000F02C50087D
:10613B000D020EF326000EF422000EF324D96E028C
:10614B000EF420DA6EDF502D140009D8B401D00103
:10615B00D002D0898202D0899200D000F0898000D1
:10616B00F0D8902D302D6E2D6601D001D0DDD7C427
:10617B00CF25F0C2822550246001D001D003D02559
:10618B00C024F000D0446E800E2D6E44502D66015D
:10619B00D001D002D025D024D0899000F02C50080B
:1061AB000D030EF326000EF422000EF324D96E021B
:1061BB000EF420DA6EDF502D140009D8B401D00193
:1061CB00D002D0898202D0899200D000F089800061
:1061DB00F0D8902D302D6E2D6601D001D0DDD7007B
:1061EB00D089902C2A00D05A502C5CD8A001D00119
:1061FB00D04ED700D01200466E000E426E4650CFE6
:10620B00D04250080D050EF326000EF422000EF3BB
:10621B0024D96E020EF420DA6EDF50466EF80E466D
:10622B005CD8B001D001D01ED04250080D050EF342
:10623B0026000EF422000EF324D96E020EF420DA9F
:10624B006E4250080D050EF326000EF422000EF3DD
:10625B0024E16E020EF420E26EE75000010001AF64
:10626B0025DF6E00D0B6EC23F0466E00010001ACCA
:10627B0051465CD8B001D001D012D0B6EC23F04619
:10628B006E4250080D050EF326000EF422000EF39D
:10629B0024D96E020EF420DA6E46C0DFFF00D04226
:1062AB0050080D010EF326000EF422000EF324D934
:1062BB006E020EF420DA6EDF50466E4250080D056A
:1062CB000EF326000EF422000EF324D96E020EF408
:1062DB0020DA6EDF50465CD8B001D001D00CD04232
:1062EB0050080D000EF324D96E020EF420DA6E0066
:1062FB0001AAC0DFFF0CD04250080D000EF324D9C9
:10630B006E020EF420DA6E0001A9C0DFFF00D0424E
:10631B0050080D020EF326000EF422000EF324D9C2
:10632B006E020EF420DA6E4250080D010EF32600B9
:10633B000EF422000EF324E16E020EF420E26EE75F
:10634B0050466E465000010001AD03F4CFF3FFF44D
:10635B006AF350DF6E4250080D030EF326000EF465
:10636B0022000EF324D96E020EF420DA6E4250088E
:10637B000D010EF326000EF422000EF324E16E0243
:10638B000EF420E26EE750466E465000010001A865
:10639B0003F4CFF3FFF46AF350DF6E422A00D05AB6
:1063AB0050425CD8A001D001D02BD700D0120023D3
:1063BB005000010001A75DD8A001D001D003D0236C
:1063CB0028236E00D024C015F0166A15C054F016A1
:1063DB00C055F0070ED89054365536E82EFBD754DF
:1063EB00C015F055C016F0235000010001A6610145
:1063FB00D001D068D015C044F016C045F074C0462B
:10640B00F075C047F0FFEC21F000010001AB5154D7
:10641B006E556A4450545C45505558D8A001D00174
:10642B00D018D015C044F016C045F076C046F077B2
:10643B00C047F0FFEC21F000010001AE51546E5546
:10644B006A4450545C45505558D8B001D001D03AED
:10645B00D000D02F50456E446A010E000100017C24
:10646B0025466E476A000E4722FFEC21F044C054CC
:10647B00F045C055F02450456E446A010E2F24465A
:10648B006E476A000E4722FFEC21F04450545C45E6
:10649B00505558D8B001D001D015D01DEC21F05B70
:1064AB0050235CD8A001D001D005D05B500008234D
:1064BB0024236E08D0546E000E236E545003D0026A
:1064CB00D001D000D076C015F077C016F024505D07
:1064DB0002F3CF76F0F4CF77F05D50546E556A54DB
:1064EB001E551E544A552AFF0E5424446E000E5559
:1064FB0020456E15C046F016C047F063EC21F04402
:10650B005000010001762745500001000177230060
:10651B00010001775100010001766F0001776B7468
:10652B00C015F075C016F024505C02F3CF74F0F474
:10653B00CF75F05C50546E556A541E551E544A5517
:10654B002AFF0E5424446E000E5520456E15C0468E
:10655B00F016C047F063EC21F044500001000174C9
:10656B002745500001000175230001000175510002
:10657B00010001746F0001756B2FC07CF024C02FDC
:10658B00F0546E000E246E54501200B6EC23F046FD
:10659B006ED890463200010001D8907A3146240023
:1065AB000100017A6F1EC01DF020C01FF022C02118
:1065BB00F079C078F0466E000E1C6E4650BFD01CB2
:1065CB0050080D020EF326000EF422000EF324D910
:1065DB006E020EF420DA6E2150010DC60EF324F676
:1065EB006EF76A7E0EF7220800F5CF46F0D890467C
:1065FB0032D8904632D890463200010001785101D2
:10660B000DC60EF324F66EF76A7E0EF7220800F520
:10661B00CF47F0D8904732D8904732D89047321FA7
:10662B0050010DC60EF324F66EF76A7E0EF72208A4
:10663B0000F5CF48F0D8904832D8904832D89048DF
:10664B00321D50010DC60EF324F66EF76A7E0EF75F
:10665B00220800F5CF49F0D8904932D8904932D86A
:10666B00904930482447244624DF6E1C50080D0205
:10667B000EF326000EF422000EF324D96E020EF454
:10668B0020DA6E1C50080D010EF326000EF42200CA
:10669B000EF324E16E020EF420E26EDFCFE7FF1C57
:1066AB0050080D030EF326000EF422000EF324D92E
:1066BB006E020EF420DA6E1C50080D020EF326004B
:1066CB000EF422000EF324E16E020EF420E26EE7CC
:1066DB0050466ED8904632D8904630476E486A1C6A
:1066EB0050080D020EF326000EF422000EF324E1E7
:1066FB006E020EF420E26EE750496E4950472600B9
:10670B000E482248344832473248344832473248E0
:10671B0034483247324750DF6E1D50070F1D6E1F36
:10672B00500F0F1F6E21501A0F216E0001000178C0
:10673B00511F0F00010001786F1C2A00D05A501C0A
:10674B005CD8A001D001D03BD700D01E281E6E20F4
:10675B0050030F206E2250080F226E0001000179AA
:10676B0051090F00010001796F1200B6EC23F046BE
:10677B006ED890463200010001D890873146240034
:10678B00010001876F80C07FF082C081F084C083DD
:10679B00F086C085F0466E000E3C6E4650B6D03C7F
:1067AB0050080D030EF326000EF422000EF324D92D
:1067BB006E020EF420DA6E3C50080D020EF326002A
:1067CB000EF422000EF324E16E020EF420E26EE7CB
:1067DB0050466ED8804630DF6E3C50080D020EF3EB
:1067EB0026000EF422000EF324D96E020EF420DAEA
:1067FB006E000100018351010DC60EF324F66EF7F6
:10680B006A7E0EF7220800F5CF46F0D8904632D8B4
:10681B00904632D8904632000100018551010DC6D9
:10682B000EF324F66EF76A7E0EF7220800F5CF47BB
:10683B00F0D8904732D8904732D8904732000100B9
:10684B00018151010DC60EF324F66EF76A7E0EF729
:10685B00220800F5CF48F0D8904832D8904832D86B
:10686B00904832000100017F51010DC60EF324F652
:10687B006EF76A7E0EF7220800F5CF49F0D89049E3
:10688B0032D8904932D8904930482447244624DFE7
:10689B006E3C50080D010EF326000EF422000EF391
:1068AB0024D96E020EF420DA6E3C50080D020EF362
:1068BB0026000EF422000EF324E16E020EF420E209
:1068CB006EE750466ED8904632D8904630DF6E0059
:1068DB000100017F51030F000100017F6F000100D8
:1068EB00018151050F00010001816F00010001833F
:1068FB0051070F00010001836F0001000185510B4F
:10690B000F00010001856F3C2A00D05A503C5CD827
:10691B00A001D001D044D700D00001000180510C60
:10692B000F00010001806F000100018251100F0068
:10693B00010001826F000100018451140F0001005E
:10694B0001846F000100018651160F0001000186C2
:10695B006F1200B6EC23F0466E650E465CD8A001B4
:10696B00D001D02ED0B6EC23F0070B2A6E2A5003A1
:10697B000DC60EF324F66EF76A7F0EF7220800F5AC
:10698B00CF12F02A50030DF3CF46F0010E4626C668
:10699B000E4624F66EF76A7F0EF7220800F5CF1429
:1069AB00F02A50030DF3CF46F0020E4626C60E46D4
:1069BB0024F66EF76A7F0EF7220800F5CF13F0006E
:1069CB00D0466E000E406E465092D0B6EC23F04689
:1069DB006E800E465CD8A001D001D087D040500805
:1069EB000D010EF326000EF422000EF324D96E02D5
:1069FB000EF420DA6E12C0DFFF4050080D020EF3CA
:106A0B0026000EF422000EF324D96E020EF420DAC7
:106A1B006E13C0DFFF4050080D030EF326000EF47B
:106A2B0022000EF324D96E020EF420DA6E14C0DFAE
:106A3B00FF4050080D070EF326000EF422000EF354
:106A4B0024D96E020EF420DA6E010EDF6E40500870
:106A5B000D010EF326000EF422000EF324D96E0264
:106A6B000EF420DA6E4050080D050EF326000EF4DE
:106A7B0022000EF324E16E020EF420E26EDFCFE76C
:106A8B00FF4050080D020EF326000EF422000EF309
:106A9B0024D96E020EF420DA6E4050080D060EF368
:106AAB0026000EF422000EF324E16E020EF420E217
:106ABB006EDFCFE7FF4050080D030EF326000EF4F8
:106ACB0022000EF324D96E020EF420DA6E40500829
:106ADB000D040EF326000EF422000EF324E16E02D9
:106AEB000EF420E26EDFCFE7FF00D0402A00D05A31
:106AFB0050405CD8A001D001D068D700D0690E02FD
:106B0B006E5E0E016E690E046E5E0E036E4B0E060C
:106B1B006E880E056E5F0E086E320E076E4F0E0AF4
:106B2B006ED80E096E466EC80E0D6E4650466E64DC
:106B3B000E0E6E4650466EAA0E0F6E4650466E46B1
:106B4B000E106E46501200B6EC23F04F6E650E4FD2
:106B5B005CD8A001D001D02ED0B6EC23F0070B2AC5
:106B6B006E2A50030DC60EF324F66EF76A7F0EF7EE
:106B7B00220800F5CF12F02A50030DF3CF4FF0018E
:106B8B000E4F26C60E4F24F66EF76A7F0EF72208BD
:106B9B0000F5CF14F02A50030DF3CF4FF0020E4F38
:106BAB0026C60E4F24F66EF76A7F0EF7220800F505
:106BBB00CF13F000D04F6E000E406E4F50A2D0B6E8
:106BCB00EC23F04F6E506A000E476EFF0E466E5A66
:106BDB00C048F0496A58EC23F05050800A516E4679
:106BEB00504F5C4750800A5158D8B001D001D08724
:106BFB00D04050080D010EF326000EF422000EF3C8
:106C0B0024D96E020EF420DA6E12C0DFFF4050085A
:106C1B000D020EF326000EF422000EF324D96E02A1
:106C2B000EF420DA6E13C0DFFF4050080D030EF395
:106C3B0026000EF422000EF324D96E020EF420DA95
:106C4B006E14C0DFFF4050080D070EF326000EF444
:106C5B0022000EF324D96E020EF420DA6E010EDF41
:106C6B006E4050080D010EF326000EF422000EF3B9
:106C7B0024D96E020EF420DA6E4050080D050EF387
:106C8B0026000EF422000EF324E16E020EF420E235
:106C9B006EDFCFE7FF4050080D020EF326000EF417
:106CAB0022000EF324D96E020EF420DA6E40500847
:106CBB000D060EF326000EF422000EF324E16E02F5
:106CCB000EF420E26EDFCFE7FF4050080D030EF30A
:106CDB0026000EF422000EF324D96E020EF420DAF5
:106CEB006E4050080D040EF326000EF422000EF336
:106CFB0024E16E020EF420E26EDFCFE7FF09D040F5
:106D0B002A00D05A50405CD8A001D001D058D700EF
:106D1B00D06B0E026E520E016E6B0E046E520E0392
:106D2B006E690E066E5E0E056E560E086E440E07ED
:106D3B006E4B0E0A6E880E096E4F6EAA0E0D6E4FBD
:106D4B00504F6E3C0E0E6E4F504F6E320E0F6E4FFD
:106D5B00504F6E460E106E4F501200466E000E4294
:106D6B006E465014D14250080D050EF326000EF45A
:106D7B0022000EF324D96E020EF420DA6EDF504699
:106D8B006EF80E465CD8B001D001D01CD042500832
:106D9B000D050EF326000EF422000EF324D96E021D
:106DAB000EF420DA6E4250080D050EF326000EF499
:106DBB0022000EF324E16E020EF420E26EE750087F
:106DCB000FDF6E00D04250080D060EF326000EF4B6
:106DDB0022000EF324D96E020EF420DA6EDF504639
:106DEB006EB90E465CD8B001D001D01CD042500811
:106DFB000D060EF326000EF422000EF324D96E02BC
:106E0B000EF420DA6E4250080D060EF326000EF437
:106E1B0022000EF324E16E020EF420E26EE750081E
:106E2B000FDF6E00D04250080D040EF326000EF457
:106E3B0022000EF324D96E020EF420DA6EDF5046D8
:106E4B006E3F0E465CD8B001D001D01CD04250082A
:106E5B000D040EF326000EF422000EF324D96E025D
:106E6B000EF420DA6E4250080D040EF326000EF4D9
:106E7B0022000EF324E16E020EF420E26EE75002C4
:106E8B000FDF6E00D0B6EC23F0466E410E465CD899
:106E9B00B001D001D041D0B6EC23F0436E42500884
:106EAB000D050EF326000EF422000EF324D96E020C
:106EBB000EF420DA6E43C0DFFF4250080D060EF3CE
:106ECB0026000EF422000EF324D96E020EF420DA03
:106EDB006E435043C046F0D890463246C047F04808
:106EEB006A4726000E482248344832473248344815
:106EFB003247324750DF6E4250080D040EF3260026
:106F0B000EF422000EF324D96E020EF420DA6E4337
:106F1B0040E8423F0BDF6E00D04250080D010EF3EC
:106F2B0026000EF422000EF324D96E020EF420DAA2
:106F3B006EDF50466E4250080D050EF326000EF420
:106F4B0022000EF324D96E020EF420DA6EDF5046C7
:106F5B005CD8B001D001D00CD04250080D000EF31C
:106F6B0024D96E020EF420DA6E0001AAC0DFFF0CEA
:106F7B00D04250080D000EF324D96E020EF420DA25
:106F8B006E0001A9C0DFFF00D0422A00D05A504248
:106F9B005CD8A001D001D0E6D600D01200B6EC230D
:106FAB00F0466E6F0E465CD8A001D001D02ED0B645
:106FBB00EC23F0070B2A6E2A50030DC60EF324F6B2
:106FCB006EF76A7F0EF7220800F5CF12F02A5003F6
:106FDB000DF3CF46F0010E4626C60E4624F66EF78D
:106FEB006A7F0EF7220800F5CF14F02A50030DF339
:106FFB00CF46F0020E4626C60E4624F66EF76A7F83
:10700B000EF7220800F5CF13F000D0466E000E40AD
:10701B006E4650D1D0B6EC23F0466E460E465CD889
:10702B00A001D001D063D04050080D010EF3260013
:10703B000EF422000EF324D96E020EF420DA6E1237
:10704B00C0DFFF4050080D020EF326000EF42200A5
:10705B000EF324D96E020EF420DA6E13C0DFFF405C
:10706B0050080D030EF326000EF422000EF324D964
:10707B006E020EF420DA6E14C0DFFF4050080D07CD
:10708B000EF326000EF422000EF324D96E020EF43A
:10709B0020DA6E010EDF6E4050080D050EF3260050
:1070AB000EF422000EF324D96E020EF420DA6E12C7
:1070BB00C0DFFF4050080D060EF326000EF4220031
:1070CB000EF324D96E020EF420DA6E13C0DFFF40EC
:1070DB0050080D040EF326000EF422000EF324D9F3
:1070EB006E020EF420DA6E14C0DFFF63D04050083E
:1070FB000D010EF326000EF422000EF324D96E02BE
:10710B000EF420DA6E000EDF6E4050080D020EF307
:10711B0026000EF422000EF324D96E020EF420DAB0
:10712B006E000EDF6E4050080D030EF326000EF4BA
:10713B0022000EF324D96E020EF420DA6E000EDF5D
:10714B006E4050080D070EF326000EF422000EF3CE
:10715B0024D96E020EF420DA6E010EDF6E40500859
:10716B000D050EF326000EF422000EF324D96E0249
:10717B000EF420DA6E000EDF6E4050080D060EF393
:10718B0026000EF422000EF324D96E020EF420DA40
:10719B006E000EDF6E4050080D040EF326000EF449
:1071AB0022000EF324D96E020EF420DA6E000EDFED
:1071BB006E00D0402A00D05A50405CD8A001D001BC
:1071CB00D029D700D06F0E026EA80E016E6F0E0481
:1071DB006EA80E036E5C0E066E840E056E4B0E08CB
:1071EB006E880E076E690E0A6E5E0E096E466EAAEB
:1071FB000E0D6E4650466E460E0E6E4650466E3265
:10720B000E0F6E4650466E460E106E4650120046DE
:10721B006E000E196E46500F0E196401D001D0028C
:10722B00D03FD13ED11950020DF3CF46F0010E469F
:10723B00260001880E4624D96EDA6A0001000EDAA8
:10724B0022DF50D8B401D001D065D01950020D0007
:10725B0001880EF324D96EDA6A0001000EDA22DF00
:10726B0050466E4650080D050EF326000EF4220014
:10727B000EF324D96E020EF420DA6EBC0EDF6E19FB
:10728B0050020D0001880EF324D96EDA6A0001005A
:10729B000EDA22DF50466E4650080D060EF326001E
:1072AB000EF422000EF324D96E020EF420DA6EA037
:1072BB000EDF6E1950020D0001880EF324D96EDA21
:1072CB006A0001000EDA22DF50466E4650080D04AC
:1072DB000EF326000EF422000EF324D96E020EF4E8
:1072EB0020DA6EFF0EDF6E1950020D0001880EF3CF
:1072FB0024D96EDA6A0001000EDA22DF50466E46A0
:10730B0050080D000EF324D96E020EF420DA6E3CF9
:10731B000EDF6E65D01950020D0001880EF324D9D3
:10732B006EDA6A0001000EDA22DF50466E46500814
:10733B000D000EF324D96E020EF420DA6E1E0EDF52
:10734B006E1950020D0001880EF324D96EDA6A0013
:10735B0001000EDA22DF50466E4650080D050EF383
:10736B0026000EF422000EF324D96E020EF420DA5E
:10737B006E1A0EDF6E1950020D0001880EF324D920
:10738B006EDA6A0001000EDA22DF50466E465008B4
:10739B000D060EF326000EF422000EF324D96E0216
:1073AB000EF420DA6E3C0EDF6E1950020D000188D0
:1073BB000EF324D96EDA6A0001000EDA22DF504692
:1073CB006E4650080D040EF326000EF422000EF349
:1073DB0024D96E020EF420DA6E280EDF6E00D0B6C2
:1073EB00EC23F0466ED40E465CD8A001D001D02021
:1073FB00D01950020DF3CF46F0010E46260001883E
:10740B000E4624D96EDA6A0001000EDA22195002F8
:10741B000DF3CF47F0010E47260001880E4724E1FC
:10742B006EE26A0001000EE222E750FF0ADF6E00F7
:10743B00D0B6EC23F0466EF10E465CD8A001D0011D
:10744B00D028D0466E000E1A6E4650C70E1A640135
:10745B00D001D002D01ED01DD0B6EC23F01B6E5A3B
:10746B00501B6001D001D00DD01950020D000188C6
:10747B000EF324D96EDA6A0001000EDA221BC0DF8C
:10748B00FF00D01A2AC70E1A6401D001D0E5D7012C
:10749B00D000D0192A0F0E196401D001D0C3D60029
:1074AB00D012004F6E000E3D6E4F5068D03D50080D
:1074BB000D050EF326000EF422000EF324D96E02F6
:1074CB000EF420DA6E3D50080D050EF326000EF477
:1074DB0022000EF324E16E020EF420E26EE7504F11
:1074EB006E506A2D0E4F26000E5022503450324FE4
:1074FB0032503450324F324F50DF6E3D50080D0634
:10750B000EF326000EF422000EF324D96E020EF4B5
:10751B0020DA6E3D50080D060EF326000EF4220005
:10752B000EF324E16E020EF420E26EE7504F6E5024
:10753B006A140E4F26000E5022503450324F3250E8
:10754B003450324F324F50DF6E3D50080D040EF366
:10755B0026000EF422000EF324D96E020EF420DA6C
:10756B006E0C0EDF6E3D50080D000EF324D96E022B
:10757B000EF420DA6E060EDF6E3D2A00D05A503D17
:10758B005CD8A001D001D092D700D04F6E000E284E
:10759B006E4F50C5D02850020D0001600EF324D958
:1075AB006EDA6A0001000EDA22DF504F6E4F500880
:1075BB000D060EF326000EF422000EF324D96E02F4
:1075CB000EF420DA6EFF0EDF6E3D50020D000160EF
:1075DB000EF324D96EDA6A0001000EDA22DF504F67
:1075EB006E4F50080D050EF326000EF422000EF31D
:1075FB0024D96E020EF420DA6EFA0EDF6E295003D8
:10760B000BD8B401D001D089D02850020D000160F5
:10761B000EF324D96EDA6A0001000EDA22DF504F26
:10762B006E2850020DF3CF50F0010E502600016072
:10763B000E5024D96EDA6A0001000EDA22DF504FA9
:10764B005CD8B001D001D02CD02850020D000160C5
:10765B000EF324D96EDA6A0001000EDA22DF504FE6
:10766B006E5A504F5CD8B001D001D057D028500281
:10767B000D0001600EF324D96EDA6A0001000EDAF8
:10768B00222850020D0001600EF324E16EE26A0025
:10769B0001000EE222E7504F6E4F28DF6E3ED03DC9
:1076AB00D02850020D0001600EF324D96EDA6A0067
:1076BB0001000EDA22DF50D8B401D001D02ED02831
:1076CB0050020DF3CF4FF0010E4F260001600E4F0D
:1076DB0024D96EDA6A0001000EDA22DF50506E28D0
:1076EB0050020D0001600EF324D96EDA6A0001001E
:1076FB000EDA22DF505018D8B401D001D00ED028AA
:10770B0050020D0001600EF324D96EDA6A000100FD
:10771B000EDA22DF0602D001D000D0282A00D05E7C
:10772B0050285CD8A001D001D035D700D02928290A
:10773B006E295000010001B36101D001D04AD04F36
:10774B006E000E296E4F505AC048F0496A000E4722
:10775B006EFF0E466E58EC23F046C054F047C055F2
:10776B00F05EC048F0496A000E476EFF0E466E5839
:10777B00EC23F046C056F047C057F0B6EC23F04F61
:10778B006E4F50466E476A54C048F055C049F0588A
:10779B00EC23F046C050F047C051F0B6EC23F0524A
:1077AB006E5250466E476A56C048F057C049F05863
:1077BB00EC23F0D8904634536E010E532600016033
:1077CB000E5324D96EDA6A0001000EDA2250C0DFA4
:1077DB00FF00D01200446E000E3E6E445066D33E46
:1077EB0050080D010EF326000EF422000EF324D9DF
:1077FB006E020EF420DA6EDF50446E3E50080D051B
:10780B000EF326000EF422000EF324D96E020EF4B2
:10781B0020DA6EDF50445CD8B001D001D080D03E6E
:10782B0050080D010EF326000EF422000EF324D99E
:10783B006E020EF420DA6EDF50446E456A441E452C
:10784B001E444A452A3E50080D050EF326000EF441
:10785B0022000EF324D96E020EF420DA6EDF5046AE
:10786B006E46504424476E000E4520486E3E50082D
:10787B000D000EF324D96E020EF420DA6EDF5049A0
:10788B006E4A6A4A50800A4B6E4750495C4850809A
:10789B000A4B58D8B001D001D026D03E50080D016C
:1078AB000EF326000EF422000EF324D96E020EF412
:1078BB0020DA6E3E50080D000EF324E16E020EF43A
:1078CB0020E26EE750446E3E50080D010EF3260089
:1078DB000EF422000EF324E16E020EF420E26EE7AA
:1078EB00504424DF6E9DD03E50080D050EF326004C
:1078FB000EF422000EF324D96E020EF420DA6E3E43
:10790B0050080D010EF326000EF422000EF324E1B5
:10791B006E020EF420E26EDFCFE7FF82D081D03E05
:10792B0050080D050EF326000EF422000EF324D999
:10793B006E020EF420DA6EDF50446E456A441E452B
:10794B001E444A452A3E50080D010EF326000EF444
:10795B0022000EF324D96E020EF420DA6EDF5046AD
:10796B006E46504424476E000E4520486E3E50082C
:10797B000D000EF324D96E020EF420DA6EDF50499F
:10798B006E4A6A4A50800A4B6E4750495C48508099
:10799B000A4B58D8B001D001D027D03E50080D016A
:1079AB000EF326000EF422000EF324D96E020EF411
:1079BB0020DA6E3E50080D010EF326000EF4220065
:1079CB000EF324E16E020EF420E26EE750446E3E9D
:1079DB0050080D000EF324E16E020EF420E26EE768
:1079EB005000084424DF6E1CD03E50080D050EF3EA
:1079FB0026000EF422000EF324D96E020EF420DAC8
:107A0B006E3E50080D010EF326000EF422000EF30D
:107A1B0024E16E020EF420E26EDFCFE7FF01D0000F
:107A2B00D03E50080D020EF326000EF422000EF38A
:107A3B0024D96E020EF420DA6EDF50446E3E5008ED
:107A4B000D060EF326000EF422000EF324D96E025F
:107A5B000EF420DA6EDF50445CD8B001D001D08038
:107A6B00D03E50080D020EF326000EF422000EF34A
:107A7B0024D96E020EF420DA6EDF50446E456A4450
:107A8B001E451E444A452A3E50080D060EF326009D
:107A9B000EF422000EF324D96E020EF420DA6EDF00
:107AAB0050466E46504424476E000E4520486E3EAD
:107ABB0050080D000EF324D96E020EF420DA6EDF9F
:107ACB0050496E4A6A4A50800A4B6E4750495C488F
:107ADB0050800A4B58D8B001D001D026D03E500868
:107AEB000D020EF326000EF422000EF324D96E02C3
:107AFB000EF420DA6E3E50080D000EF324E16E02F8
:107B0B000EF420E26EE750446E3E50080D020EF369
:107B1B0026000EF422000EF324E16E020EF420E296
:107B2B006EE7504424DF6E9DD03E50080D060EF3D9
:107B3B0026000EF422000EF324D96E020EF420DA86
:107B4B006E3E50080D020EF326000EF422000EF3CB
:107B5B0024E16E020EF420E26EDFCFE7FF82D081CC
:107B6B00D03E50080D060EF326000EF422000EF345
:107B7B0024D96E020EF420DA6EDF50446E456A444F
:107B8B001E451E444A452A3E50080D020EF32600A0
:107B9B000EF422000EF324D96E020EF420DA6EDFFF
:107BAB0050466E46504424476E000E4520486E3EAC
:107BBB0050080D000EF324D96E020EF420DA6EDF9E
:107BCB0050496E4A6A4A50800A4B6E4750495C488E
:107BDB0050800A4B58D8B001D001D027D03E500866
:107BEB000D020EF326000EF422000EF324D96E02C2
:107BFB000EF420DA6E3E50080D020EF326000EF442
:107C0B0022000EF324E16E020EF420E26EE75044E4
:107C1B006E3E50080D000EF324E16E020EF420E2CE
:107C2B006EE75000084424DF6E1CD03E50080D0652
:107C3B000EF326000EF422000EF324D96E020EF47E
:107C4B0020DA6E3E50080D020EF326000EF42200D1
:107C5B000EF324E16E020EF420E26EDFCFE7FF019C
:107C6B00D000D03E50080D030EF326000EF4220078
:107C7B000EF324D96E020EF420DA6EDF50446E3E02
:107C8B0050080D040EF326000EF422000EF324D937
:107C9B006E020EF420DA6EDF50445CD8B001D001D6
:107CAB00D080D03E50080D030EF326000EF42200B8
:107CBB000EF324D96E020EF420DA6EDF50446E45BB
:107CCB006A441E451E444A452A3E50080D040EF3D5
:107CDB0026000EF422000EF324D96E020EF420DAE5
:107CEB006EDF50466E46504424476E000E452048CA
:107CFB006E3E50080D000EF324D96E020EF420DAFE
:107D0B006EDF50496E4A6A4A50800A4B6E475049A3
:107D1B005C4850800A4B58D8B001D001D026D03ED9
:107D2B0050080D030EF326000EF422000EF324D997
:107D3B006E020EF420DA6E3E50080D000EF324E1B5
:107D4B006E020EF420E26EE750446E3E50080D03B7
:107D5B000EF326000EF422000EF324E16E020EF455
:107D6B0020E26EE7504424DF6E9DD03E50080D0498
:107D7B000EF326000EF422000EF324D96E020EF43D
:107D8B0020DA6E3E50080D030EF326000EF422008F
:107D9B000EF324E16E020EF420E26EDFCFE7FF82DA
:107DAB00D081D03E50080D040EF326000EF42200B5
:107DBB000EF324D96E020EF420DA6EDF50446E45BA
:107DCB006A441E451E444A452A3E50080D030EF3D5
:107DDB0026000EF422000EF324D96E020EF420DAE4
:107DEB006EDF50466E46504424476E000E452048C9
:107DFB006E3E50080D000EF324D96E020EF420DAFD
:107E0B006EDF50496E4A6A4A50800A4B6E475049A2
:107E1B005C4850800A4B58D8B001D001D027D03ED7
:107E2B0050080D030EF326000EF422000EF324D996
:107E3B006E020EF420DA6E3E50080D030EF3260090
:107E4B000EF422000EF324E16E020EF420E26EE734
:107E5B0050446E3E50080D000EF324E16E020EF4FA
:107E6B0020E26EE75000084424DF6E1CD03E500821
:107E7B000D040EF326000EF422000EF324D96E022D
:107E8B000EF420DA6E3E50080D030EF326000EF4AE
:107E9B0022000EF324E16E020EF420E26EDFCFE738
:107EAB00FF01D000D03E283E6E00D05A503E5CD829
:107EBB00A001D001D094D400D01200808386898C8D
:107ECB008F9295989B9EA2A5A7AAADB0B3B6B9BC4D
:107EDB00BEC1C4C6C9CBCED0D3D5D7DADCDEE0E287
:107EEB00E4E6E8EAEBEDEEF0F1F3F4F5F6F8F9FA87
:107EFB00FAFBFCFDFDFEFEFEFFFFFFFFFFFFFFFE9B
:107F0B00FEFEFDFDFCFBFAFAF9F8F6F5F4F3F1F0E1
:107F1B00EEEDEBEAE8E6E4E2E0DEDCDAD7D5D3D04F
:107F2B00CECBC9C6C4C1BEBCB9B6B3B0ADAAA7A5AA
:107F3B00A29E9B9895928F8C898683807C79767391
:107F4B00706D6A6764615D5A5855524F4C49464390
:107F5B00413E3B393634312F2C2A282523211F1D36
:107F6B001B1917151412110F0E0C0B0A0907060516
:107F7B0005040302020101010000000000000001E2
:107F8B0001010202030405050607090A0B0C0E0F7B
:107F9B001112141517191B1D1F212325282A2C2FED
:107FAB00313436393B3E414346494C4F5255585A72
:107FBB005D6164676A6D707376797C0000FFFFFF0B
:107FCB000000FF00FF0000FF00FF80FF00FFFFFF2E
:107FDB00FF7F004B6E6967687465640000FFFFFFED
:107FEB00000000FFFFFF0000000000FF000000FF8B
:047FFB00FF00000083
:020000040030CA
:0400010039003C0086
:00000001FF
